:040000006F00404607
:1000040000000000000000002002000022020000A6
:100014000000000062040000000000000000000076
:100024006204000062040000000000000000000000
:1000340062040000000000006204000000000000F0
:100044006204000062040000620400006204000014
:100054006204000062040000620400006204000004
:1000640062040000620400006204000062040000F4
:1000740062040000620400006204000062040000E4
:1000840062040000620400006204000062040000D4
:1000940062040000620400006204000062040000C4
:1000A40062040000620400006204000062040000B4
:1000B40062040000620400006204000062040000A4
:1000C4006204000062040000620400006204000094
:1000D4006204000062040000620400006204000084
:1000E4006204000062040000620400006204000074
:1000F4006204000062040000620400006204000064
:1001040000000000620400006204000062040000B9
:100114006204000062040000620400006204000043
:100124006204000062040000620400006204000033
:100134006204000062040000620400006204000023
:100144006204000062040000620400006204000013
:100154006204000062040000620400006204000003
:1001640062040000620400006204000062040000F3
:1001740062040000620400006204000062040000E3
:1001840062040000620400006204000062040000D3
:1001940062040000620400006204000062040000C3
:1001A400000000000000000000000000000000004B
:0C01B4000000000000000000000000003F
:1001C000397101436EC619A0397141536AC866CAB4
:1001D00062CC5ECE19A0397101535AD056D252D496
:1001E0004ED64AD826DA22DC06DE3301614082820E
:1001F00041114AC026C222C406C68282B24D4101C4
:10020000024D924C224CB24B4101024B924A224A7F
:10021000B2494101024992442244B24041018280E4
:1002200001A0B707EFBE37E700E0938707083CC798
:1002300001A0EFF2FFFB37440140AA8413090480B8
:10024000930500044A85552B65DD93950401C18112
:1002500013050480792B7DBFEFF29FF92A840305F3
:10026000040011E145BFF1370504D5BFEFF25FF897
:1002700041110DC901442947A5465C00338687001A
:10028000B377E5020504938707031CA2B357E50281
:1002900063EFA6007D145C00A29703850700513F21
:1002A00075F821A01305000369374101A5B73E8504
:1002B000E9B7EFF2FFF301118545114502C202C40F
:1002C00002C602C802CA02CC02CEA9298545116520
:1002D0009129930700207C8237150140E1473EC6F3
:1002E0004C008D47130505803EC41124F167374447
:1002F0000140938707203EC80C08B7070800130584
:1003000004803ECC02CA231E010025298545130521
:100310000480E9210561FDBDEFF29FED3714000077
:10032000D521413F13054486053F371500001305CD
:10033000C5871D373715000013050589313F1305A3
:100340004486193F014437190000B7140000130513
:10035000498A19372285193F13858487F53D13058E
:10036000803E0504E921E5B7B71702409843B70678
:10037000FFF041111367170098C3D84337060200F6
:10038000758FD8C39843B706F7FEFD16758F98C3CF
:100390009843B706FCFFFD16758F98C3D843B70680
:1003A00001FFFD16758FD8C39843B70600ECFD1604
:1003B000758F98C33707FF0098C723A6070202C4AA
:1003C00002C69843C166558F98C3B71602400567A9
:1003D0009C42F18F3EC6A24785073EC4B24781E7E3
:1003E000A247E397E7FEB71702409C431397E70045
:1003F0006357070685473EC632478547631FF704A4
:10040000B7170240D843B706C1FFFD16D8C3D8437B
:10041000D8C3D84313670740D8C3D843758FD8C310
:10042000D843B7062900558FD8C39843B7060001B3
:10043000558F98C3984393166700E3DD06FED843B3
:10044000B7160240719BD8C3D84313672700D8C39F
:100450002147DC42B18BE39EE7FE4101828002C668
:1004600061BF01A0970100209381C13A178100204C
:10047000130141B9170500001305C5439705002076
:10048000938545B81386818063FAC50083220500F1
:1004900023A0550011059105E3EAC5FE138581806F
:1004A0009385C1806377B500232005001105E36DB6
:1004B000B5FEFD42739002BCAD4273904280B762BC
:1004C00000009382820873900230970200009382AA
:1004D000A2B393E2320073905230EFF0FFE897023C
:1004E00000009382A2E373901234730020309C4585
:1004F00013F7070113F8F70001C7D8413368E80084
:100500008E2113F7F50F39C318418146854E3D4FB3
:10051000930F800293028004214E3396DE00B3F8DD
:10052000C500631116039398260033131F0113436C
:10053000F3FF3377E300B318180133E7E800639F54
:10054000F70550C98506E39AC6FD18C11307F00FD9
:100550006375B70454412146854E3D4F930F800289
:1005600093028004414EB398CE0033F71501639295
:10057000E8021317260001173313EF001343F3FFAC
:10058000B376D3003317E800D98E639DF701232A91
:1005900015010506E319C6FD54C18280E39457FA9C
:1005A00010C94DB7E39757FE23281501DDB737175C
:1005B00002405C439146B18B6385D700A1466382BC
:1005C000D706B7177A00938707201CC13716024059
:1005D0005C4237070020130707009183BD8BBA9751
:1005E00094231C41B3D7D7005CC15442A1829D8A99
:1005F000BA969422B3D6D70014C55442AD829D8AD0
:1006000036971823B3D7E7005CC5584239839376F1
:1006100037001387418036971823B3D7E7021CC9E8
:1006200082805C435843C166C983758FB7F6FF1F4C
:1006300083A6C670BD8B8907139616016348060012
:10064000C54601466392D702C94739A88946638FD8
:10065000D702BD46638ED702C146638ED702C54618
:1006600001466393D700C1471DEF37470240032778
:100670000780418B05C737177A0013070720B30798
:10068000F7021CC121D61C41858381B701466DBF8D
:100690000546B547D1BF0146BD47F9B737173D00FD
:1006A00013070790E9BFB7150240D8559316F70016
:1006B000D85563DF060411833D8B93061700371767
:1006C0007A00130707203357D70218C1D455A182E7
:1006D000BD8A8DE295463307D702058318C13717C7
:1006E0000240585714413D8B050733D7E60218C125
:1006F000184171B785456394B600E546E9BFBD452D
:100700006396B600D1463387E602C9BF8906E5BFC6
:100710003D8B9306170037177A00130707203357CE
:10072000D702F1B799C5371702401C4F5D8D08CF2E
:100730008280B7170240984F1345F5FF798D88CF17
:100740008280EFF2FFAA1A29F577FD17F98FFA21B7
:1007500079712A84D98F1EA99A25DE2156252EC6A5
:10076000D98FBA25D98F7D771307379F758FD98F8A
:100770005EA55E29DA25C207C18393F7F7CFD98F2B
:100780005EA968082D35B747014093870780B245B9
:100790006310F404A2576547B387E7029841130634
:1007A00040060A07B3D7E702B3D6C702B3F7C702BA
:1007B000920613974700930727031307F063637BA1
:1007C000F70093870601C207C1831EA4456199B44F
:1007D0009257D1B7B3D7C702D58FF5B791C55E256C
:1007E0000967D98F5EA582805A25F977FD17F98FA1
:1007F000D5BF93F5F51F4EA182800A216D8D33354B
:10080000A0008280B707002083A7070137177A006E
:1008100013070720B3D7E70293F7F70F2385F1807B
:100820001307803EB387E7022394F1808280B7F7F5
:1008300000E0D8438146799BD8C303D78180330633
:10084000A70290CBD4CB98431367070198C3984372
:100850001367170298C3D843058B75DF9843799BBC
:1008600098C382803D3D3D3D3D3D3D3D3D3D3D3D4F
:100870003D3D3D3D3D3D3D3D0D0A0000202048658C
:100880006C6C6F204348333256333037210D0A00E9
:100890002020B4AEBFDAC6F4B6AFB3C9B9A6A3A1DF
:1008A0000D0A0000636F756E74203D20000000008B
:1008B0000000000001020304010203040607080906
:0808C00000D8B8050204060887
:00000001FF
