:040000006F00B04598
:100004000000000000000000C8020000CA02000056
:1000140000000000580C0000000000000000000078
:10002400580C0000580C0000000000000000000004
:10003400580C000000000000580C000000000000F4
:10004400580C0000580C0000580C0000580C00001C
:10005400580C0000580C0000580C0000580C00000C
:10006400580C0000580C0000580C0000580C0000FC
:10007400580C0000580C0000580C0000580C0000EC
:10008400580C0000580C0000580C0000580C0000DC
:10009400580C0000580C0000580C00001C03000011
:1000A400580C0000580C0000580C0000580C0000BC
:1000B40078030000580C0000580C0000580C000095
:1000C400580C0000580C0000580C0000580C00009C
:1000D400580C0000580C0000580C0000580C00008C
:1000E400580C0000580C0000580C0000580C00007C
:1000F400580C0000580C0000580C0000580C00006C
:1001040000000000580C0000580C0000580C0000BF
:10011400580C0000580C0000580C0000580C00004B
:10012400580C0000580C0000580C0000580C00003B
:10013400580C000070030000580C0000580C00001C
:10014400580C0000580C0000580C0000580C00001B
:10015400580C0000580C0000580C0000580C00000B
:10016400580C0000580C0000580C0000580C0000FB
:10017400580C0000580C0000580C0000580C0000EB
:10018400580C0000580C0000580C0000580C0000DB
:10019400580C0000580C0000580C0000580C0000CB
:1001A400000000000000000000000000000000004B
:0C01B4000000000000000000000000003F
:1001C000397101436EC619A0397141536AC866CAB4
:1001D00062CC5ECE19A0397101535AD056D252D496
:1001E0004ED64AD826DA22DC06DE3301614082820E
:1001F00041114AC026C222C406C68282B24D4101C4
:10020000024D924C224CB24B4101024B924A224A7F
:10021000B2494101024992442244B24041018280E4
:100220003D432A876373C3029377F700BDEFADE5C3
:10023000937606FF3D8ABA960CC34CC30CC74CC7D5
:100240004107E36BD7FE11E28280B306C3408A0602
:100250009702000096966780A6002307B700A306C2
:10026000B7002306B700A305B7002305B700A30412
:10027000B7002304B700A303B7002303B700A3020A
:10028000B7002302B700A301B7002301B700A30002
:10029000B7002300B700828093F5F50F9396850091
:1002A000D58D93960501D58D61B79396270097025A
:1002B000000096968682E78086FA9680C1171D8F89
:1002C0003E96E374C3F8A5B701A037950000130567
:1002D000453CEF80307EEF10B07BAA85379500005B
:1002E0001305853DEF805078EF10F07AAA85379599
:1002F00000001305853EEF803077EF10307AAA8535
:10030000379500001305853FEF801076B707EFBEE5
:1003100037E700E0938707083CC701A0397106DE84
:1003200016DC1ADA1ED82AD62ED432D236D03ACEDD
:100330003ECC42CA46C872C676C47AC27EC0EF10AE
:10034000A07713050008EF00F036F250E252525346
:10035000C2533255A255125682567247E24752484E
:10036000C248324EA24E124F824F2161730020309C
:10037000EF10B046730020302945EF10E01085459E
:1003800037050040EF00107973002030EFF25FE690
:1003900041118545214502C202C402C6EF00305911
:1003A00093078002371401407C82D1473EC64C003F
:1003B0008D47130504C03EC4EF007030130504C020
:1003C0000546A145EF00D03C054693050002130504
:1003D00004C0EF00F03B410135BDEFF27FE137147F
:1003E0000140130504C0054693050002EF00503A92
:1003F0000546A145130504C0EF0090391545EF10DF
:10040000F058014693050002130504C0EF00503870
:100410001545EF10B0570146A145130504C0EF0084
:1004200030371545EF109056F5B3EFF27FDC3714F7
:100430000140130504C0014693050002EF0050354A
:100440000546A145130504C0EF0090341545EF1093
:10045000F053054693050002130504C0EF00503326
:100460001545EF10B0527DB3EFF2FFD637190140BA
:10047000AA842144930909C093978401E187054622
:1004800063C307000146930500024E85EF0050301C
:100490000945EF10B04F0546A1454E85EF00502F9E
:1004A0001545EF10B04E0146A1454E85EF00502E88
:1004B0007D14860409451374F40F93F4F40FEF10C0
:1004C000F04C5DF8054693050002130509C0EF00E6
:1004D000302C0945EF10904B0546A145130509C086
:1004E000EF00102B1545EF10704A0146A14513058A
:1004F00009C0EF00F02911BBEFF29FCF371901407F
:10050000A1440144130909C0A14505464A85EF00ED
:1005100030281545EF1090470604930500024A85E0
:100520001374F40FEF00B02519C1136414000146D1
:10053000A1454A85EF00D025FD14094593F4F40F39
:10054000EF10D044F1F02285F1B1EFF27FCA4111F2
:100550002A842EC659351305600A39372285293772
:10056000B2452E851137D13541016DB1EFF25FC82B
:1005700041112A849D351305600AFD352285ED352C
:10058000A93D1305700ACD35853F2AC6793D324510
:10059000410149B1EFF23FC441112EC632C4AA8ACB
:1005A0002D3D1305600AC93513052007753D353506
:1005B0001305700A553D89372A8B3D3F2A892D3F07
:1005C0002A8A1D3FAA840D3FAA893D372AC2B13D20
:1005D0001245B2452209224633696901A2042390DB
:1005E0002A01B3E44401220586A1336535010AA23C
:1005F000410121B9EFF2DFBFA1451305D002B137A8
:10060000814513051003913731B1EFF27FBE4111DF
:100610008545214502C202C402C6EF005031894718
:10062000371401407C82C1473EC64C008D471305FC
:1006300004C03EC4EF00B00801468945130504C05C
:10064000EF0010154101F9B6EFF29FBA37150140DE
:1006500005468945130505C0EF00901365BEEFF20E
:100660003FB93715014001468945130505C0EF0024
:1006700030124DB619C9EFF2BFB7AA853795000001
:100680001305C54BEF80503E71B68280EFF25FB626
:1006900041118545054502C202C423160100EF0041
:1006A000F02A83A7418137470F0013070724B3D7E8
:1006B000E7024C0037050040231501007C84896760
:1006C0009387F7703EC2EF007033054685453705C6
:1006D0000040EF001043854537050040EF00F04033
:1006E000854537050040EF00F042B7E700E00567B9
:1006F00023A2E710410139BEEFF29FAF3971130613
:10070000C00381454800293EB707002083A70702A0
:100710001384E1853ED883D701814C001385E185A0
:100720003ED4938721819A239306170096A38D4781
:100730003ED08567938787B63AD63EC8EF200056ED
:100740000C20AA843795000013058540EF80D03136
:1007500026850D370820EF207053293F21615DBCAD
:10076000EFF21FA993F7450041112A84AE848DC78B
:100770001307C0033307E502B77700209387C73319
:100780007000BA97984F3AC6CC4BEF20302E7000CD
:1007900081452285EF20407893F78400A1C78545E5
:1007A0002285EF2070490566130686B6B305C4029C
:1007B000B7070020938707172285BE95EF20A0700A
:1007C0009387018694231307F00F6393E60080A3B9
:1007D000379500000547A2851305C545A380E1862E
:1007E000EF80902893F704018DC3938701869823A7
:1007F000631487007D5798A3A38001868D353795B4
:10080000000013058548EF80F02A93F404048DC09E
:10081000938701869823631487007D5798A33795A3
:1008200000001305C549A3800186EF80B028E93593
:1008300041016FF03F9EEFF2BF9BEF20703B93773B
:1008400015002A8499C73795000013058541EF806C
:1008500070269377240099C7379500001305C54289
:10086000EF8050259377440099CBEF20503C1189BD
:1008700019C53795000013054544EF80B023418822
:1008800019E06FF03F990145EF20D037AA8575D95F
:100890000145F935FDB7EFF23F931D71492CEF107B
:1008A000900C716513050520EF10101537950000A9
:1008B0001305C54CEF801020D13C2D3BB9330145C9
:1008C0007531AA85379500001305454FEF80D01983
:1008D00013858185EF0050391384818503485400C6
:1008E0005C203830342010300C2037950000130580
:1008F000C551EF8070173795000013054554EF8000
:10090000701B6933938681851386C18093854180EE
:1009100013858180EF10C07C2A84A93B19E43795A8
:10092000000013054558EF80F0189567938707E29C
:100930003ED09167938787A93ED20810A5473ED441
:10094000EF20401A7D572380E186014B7533014C1F
:10095000814BA54AB7990000EF10204EEF2070257B
:1009600011C1D13D83C71186E5DB1306A1012C0817
:100970001305610105318314610113940B0141805A
:1009800063D09B0A33848440831B81014204931704
:100990000C0113970B014180C183418363547C098F
:1009A000B307F740C207031CA101C1833E94420470
:1009B00093170B0113170C014180C18341836355C9
:1009C0008B07B307F740C207C1833E9442044180BE
:1009D000014863FD8A0493071003054863F8870400
:1009E000A53109480317A10183168101031661018E
:1009F000A2879385C9590810EF8050090810EF802D
:100A0000301B2ACE03C5E18570080C10EF201006BC
:100A10001305800C628BEF10C07A5E8CA68B2DBF05
:100A2000058C9DB7998FBDBF998F71BF42C605399F
:100A300032484DBFB71702409843B706FFF0411147
:100A40001367170098C3D84337060200758FD8C3C1
:100A50009843B706F7FEFD16758F98C39843B706FF
:100A6000FCFFFD16758F98C3D843B70601FFFD162E
:100A7000758FD8C39843B70600ECFD16758F98C3E1
:100A80003707FF0098C723A6070202C402C698438F
:100A9000C166558F98C3B716024005679C42F18F17
:100AA0003EC6A24785073EC4B24781E7A247E39707
:100AB000E7FEB71702409C431397E700635707060A
:100AC00085473EC632478547631FF704B717024084
:100AD000D843B706C1FFFD16D8C3D843D8C3D843FF
:100AE00013670740D8C3D843758FD8C3D843B70618
:100AF0002900558FD8C39843B7060001558F98C376
:100B0000984393166700E3DD06FED843B71602400C
:100B1000719BD8C3D84313672700D8C32147DC4251
:100B2000B18BE39EE7FE4101828002C661BFB7162A
:100B30000240D8421146318B938741816305C7003B
:100B400021466308C70237177A001307072098C3A6
:100B500037170240584311839376F7003707002078
:100B6000130707003697142398433357D70098C3C9
:100B70008280D842D442416649833D8BF18E130670
:100B8000270015CF3D47630FE6024147630FE6029A
:100B9000454781456313E6004146A1E237470240DD
:100BA00003270780418B0DC737177A0013070720EB
:100BB0003306C70290C3C9DD9843058349BF814509
:100BC0004946E1BF85453546C9BF81453D46F1B738
:100BD00037173D0013070790E1BF371502405855FE
:100BE0009316F700585563DF060411833D8B930677
:100BF000170037177A00130707203357D70298C317
:100C00005455A182BD8A8DE295463307D7020583EC
:100C100098C337170240585794433D8B050733D785
:100C2000E60298C3984369B705456394A600E54674
:100C3000E9BF3D456396A600D1463387E602C9BFAA
:100C40008906E5BF3D8B9306170037177A00130717
:100C500007203357D702F1B701A0970100209381F5
:100C600061BC177100201301E139179500001305CD
:100C7000A59C97F5FF1F9385E5381386818563FA58
:100C8000C5008322050023A0550011059105E3EA64
:100C9000C5FE13858185977500209385258463772C
:100CA000B500232005001105E36DB5FEFD427390EC
:100CB00002BCAD4273904280B7620000938282080A
:100CC0007390023097F2FFFF9382023493E2320076
:100CD00073905230EFF01FD6970200009382E2BB70
:100CE0007390123473002030B7F7FF1F03A54770CD
:100CF0008280EFF2EFCF85451165D52181451165E1
:100D0000F9296FF02FD1411102C6B78602409C4AE3
:100D100041672E057D17F18B798D9A055D8D93F5D1
:100D2000057CC98D93E51500B70750008CCAF917EB
:100D3000324705073AC6984A058B01C73247E3F99F
:100D4000E7FE3247B7075000FD1701456307F7007C
:100D5000B7870240C84B4205418141018280411161
:100D6000B787024002C6984BC166FD162E05758DE9
:100D7000718B9A05598D93F5057CC98DD0CB93E580
:100D800035008CCBB7070500B7860240F91732470C
:100D900005073AC6984A058B01C73247E3F9E7FED3
:100DA0003245B7070500FD173335F5004101828054
:100DB00023A4A1862A878147B70810401303405F08
:100DC000130EF6FF6396C700B797024088CB828068
:100DD000B3866702232017012A88AE9614C79306AC
:100DE000070163F3C7013688232607018507368785
:100DF000D1BF916623A2A1860147AA87370300804D
:100E00009386465F130E405F930EF6FF6316C7008E
:100E1000B7970240C8C782803308C70323A0670082
:100E2000D4C3AA882E9823A40701138807016373EB
:100E3000D701C28823A617010507C287C1BF37970C
:100E400002401C4393E717001CC38280B7970240FF
:100E5000C8CB8280379702401C4FB7061000D58F51
:100E60001CCF8280EFF2CFB8378402401C4093E75A
:100E700087001CC0C5371C40896693E747001CC02B
:100E8000B7970240984F558F98CF984F1367270018
:100E900098CF6FF02FB899C5379702405C4F5D8DA2
:100EA00048CF8280B7970240D84F1345F5FF798D20
:100EB000C8CF8280B707014023AAA74082809C4503
:100EC00013F7070113F8F70001C7D8413368E800AA
:100ED0008E2113F7F50F39C318418146854E3D4FDA
:100EE000930F800293028004214E3396DE00B3F804
:100EF000C500631116039398260033131F01134393
:100F0000F3FF3377E300B318180133E7E800639F7A
:100F1000F70550C98506E39AC6FD18C11307F00FFF
:100F20006375B70454412146854E3D4F930F8002AF
:100F300093028004414EB398CE0033F715016392BB
:100F4000E8021317260001173313EF001343F3FFD2
:100F5000B376D3003317E800D98E639DF701232AB7
:100F600015010506E319C6FD54C18280E39457FAC2
:100F700010C94DB7E39757FE23281501DDB7084583
:100F80006D8D3335A00082800CC982804CC982806F
:100F900019C20CC982804CC98280371702405C4359
:100FA0009146B18B6385D700A1466382D706B717F8
:100FB0007A00938707201CC1371602405C4237072E
:100FC0000020130707019183BD8BBA9794231C411E
:100FD000B3D7D7005CC15442A1829D8ABA969422AD
:100FE000B3D6D70014C55442AD829D8A36971823D4
:100FF000B3D7E7005CC5584239839376370013872F
:10100000818136971823B3D7E7021CC982805C43DD
:101010005843C166C983758FB7F6FF1F83A6C67094
:10102000BD8B89071396160163480600C546014625
:101030006392D702C94739A88946638FD702BD4654
:10104000638ED702C146638ED702C54601466393BD
:10105000D700C1471DEF3747024003270780418B68
:1010600005C737177A0013070720B307F7021CC11B
:1010700021D61C41858381B701466DBF0546B54722
:10108000D1BF0146BD47F9B737173D001307079099
:10109000E9BFB7150240D8559316F700D85563DF5E
:1010A000060411833D8B9306170037177A00130748
:1010B00007203357D70218C1D455A182BD8A8DE2CB
:1010C00095463307D702058318C137170240585792
:1010D00014413D8B050733D7E60218C1184171B79B
:1010E00085456394B600E546E9BFBD456396B60005
:1010F000D1463387E602C9BF8906E5BF3D8B93061B
:10110000170037177A00130707203357D702F1B7B4
:1011100099C5371702405C4B5D8D48CB8280B7176D
:101120000240D84B1345F5FF798DC8CB828099C515
:10113000371702401C4F5D8D08CF8280B7170240E1
:10114000984F1345F5FF798D88CF828099C5371761
:1011500002405C4F5D8D48CF8280B7170240D84F68
:101160001345F5FF798DC8CF828093575500054709
:101170006399E700B71702409C4333D5A700058960
:10118000828009476396E700B71702409C53F5B782
:10119000B7170240DC53D5B7371702405C5793F7B7
:1011A000F7F05D8D48D78280B7160240DC56457750
:1011B0007D17F98F5D8DC8D6828009C93717024027
:1011C0001C43B7060010D58F1CC38280B71602409F
:1011D0009C42370700F07D17F98F9CC2828099C529
:1011E000371702401C575D8D08D78280B717024021
:1011F00098571345F5FF798D88D7828037F7FF1F01
:10120000032747701E21914611833D8BC20771173A
:10121000C18363E6E60237370140930607C0630ED9
:10122000D50013070740630AE500375701409306CE
:1012300007C06304D500631AE5000967D98F373703
:101240000140130707C06302E50437070040630E3F
:10125000E50213070740630AE502371700409306CB
:1012600007806304D502130707C06300E502373720
:10127000014013070740630AE50037570140930612
:1012800007C06304D5006318E50093F7F7F8BA21A7
:10129000C207C183D98F37170040630CE5001307DD
:1012A00007406308E50093F7F7CFFA21C207C1832F
:1012B000D98F1EA1DE215EB59E211EB5B737014034
:1012C000138707C0630EE50093870740630AF500A4
:1012D000B7570140138707C06304E5006314F500A6
:1012E0009C251EB985475EA982801E2189C593E78A
:1012F00017001EA18280C207C183F99BC207C18368
:10130000CDBF5E2501C6DD8D4EA5828093C5F5FF5C
:10131000FD8DDDBF93C5F5FFC205C1810EA9828099
:10132000EFE21FED1A29F577FD17F98FFA21797190
:101330002A84D98F1EA99A25DE2156252EC6D98F3B
:10134000BA25D98F7D771307379F758FD98F5EA503
:101350005E29DA25C207C18393F7F7CFD98F5EA93B
:1013600068082539B747014093870780B245631164
:10137000F404A2576547B387E70298411306400675
:101380000A07B3D7E702B3D6C702B3F7C70292067C
:1013900013974700930727031307F063637CF70055
:1013A00093870601C207C1831EA445616FE09FE6D3
:1013B0009257C9B7B3D7C702D58FEDB791C55E2590
:1013C0000967D98F5EA582805A25F977FD17F98FB5
:1013D000D5BF93F5F51F4EA182800A216D8D33355F
:1013E000A000828083A781869843634B07029843BD
:1013F000370600304E05518F98C39843370600805A
:101400004D81518F98C3C8C38CC73797024011468E
:1014100050CB23220700DC47054523A4F1868280B8
:1014200001458280EFE2DFDC854789456318F500DE
:1014300037150140EFF05FB56FE0DFDD3715014094
:10144000EFF0DFB4D5BFEFE2BFDA8547854563181B
:10145000F50037150140EFF03FB36FE0BFDB371504
:101460000140EFF0BFB2D5BF37F7FF1F8147130729
:10147000D77E99463306F7400C223306F5008507E0
:101480000CA2E399D7FE82809387418798433A95CF
:1014900088C3828003A7418723A8E186B7870240DB
:1014A00003A7471C25EF03A74719894763F8E706F9
:1014B000EFE21FD403D54188F94513844188EFF04A
:1014C0009F8493572500858BA9C74D991316050155
:1014D0000A204182F945EFF09F8837870240832731
:1014E000071093E717002320F71083270710858B39
:1014F000EDFFB787024003A7471C11CB238C018661
:10150000D843B706008093C6E6FF758FD8C36FE057
:101510007FD013654500420541814DBFB78702402A
:1015200003A7471C19CB238C0186D843B70600803C
:1015300093C6E6FF758FD8C382808280EFE2BFC971
:10154000938441888A20954513844188EFF0AFFB4E
:101550002A898A208545EFF00FFB9377F9011389DB
:101560002188638A071483470900C1E30A2085475D
:10157000F9452300F900A380F188EFF0CFF8137646
:10158000C5FF4206937715004182A9CF1366260056
:101590000A20F945EFF0AFFC0A208145EFF0AFF6E5
:1015A0001376E5FF42060A20418213660620814534
:1015B000EFF0EFFA0A208145EFF0EFF413663520E3
:1015C0000A20420641828145EFF06FF983A7C18767
:1015D00013074006B3F7E70293872703238EF180B2
:1015E0006FE0BFC21366160065B705476397E70053
:1015F00089472300F900A380018893872189038705
:101600000700634607069384D18194202147639A9B
:10161000E6040A20F945EFF00FEF1376350F0A20A4
:10162000F94590A0EFF0AFF3238004000A20814534
:10163000EFF06FED1376E5FF42060A204182136654
:1016400006208145EFF0AFF10A208145EFF0AFEBC6
:10165000136635200A20420641828145EFF02FF0C3
:1016600021A0130700F898A32388018895BF9387CA
:10167000E18998239306170094A39546E316D7FEB5
:101680001375050275F19384D181238007009C2096
:1016900011490A20F945E38027F9EFF0CFE61376E8
:1016A000350F0A2013664600F94590A0EFF02FEBA6
:1016B00023802401A5BF0347090085476312F7086B
:1016C000138711881C23A1468A20850793F7F70FFB
:1016D0001CA3639BD70023000700230009002146B9
:1016E000F945EFF0CFE7EDBDF945EFF0CFE1137627
:1016F000C5FF4206937715004182A1C313662600F9
:101700000A20F945EFF0AFE50A208145EFF0AFDFA1
:101710001376E5FF42060A204182136606208145C2
:10172000EFF0EFE30A208145EFF0EFDD136635209F
:101730004206418281450A206DB713661600C9B77B
:1017400013840189834A0400138A218983460A008D
:1017500093871A001307000893F7F70F6394E606C0
:101760003D476384EA001CA0A5BD8A202300040035
:10177000230009001384D18121492146F945238F93
:10178000018823000A0023002401EFF04FDD23002D
:1017900024018A208145EFF00FD71376E5FF42063A
:1017A0008A204182136606208145EFF04FDB8A20B4
:1017B0008145EFF04FD513663520420641828145C1
:1017C0008A2005B79389D18103C709001DE7114716
:1017D000E39BEAF88A20F94523000400EFF0AFD23A
:1017E0001376350F8A2013664600F9452380C90019
:1017F000EFF0EFD62380590169BF91466318D702F5
:101800003D47E392EAF68A20230004002144214662
:10181000F945238F01882300090023000A00238053
:101820008900EFF0CFD323808900A5B71CA09307D0
:101830004006E397FADA8A2021668145EFF02FD23D
:10184000A38E0188238F0188238C0186A147230062
:1018500004002300090023000A002380F900214628
:10186000F945B9BFEFE2DF98938711899823137781
:10187000F70F2DC303A7418783A64189158F9306D0
:10188000301F63F7E60437470240238007008327B1
:101890000780138441880A2093E747002320F780BC
:1018A00021668145EFF0AFCBA38E0188238F01889D
:1018B00023880188238101880A20238C01862389BB
:1018C000018821472146F945A38EE180EFF02FC919
:1018D0006FE05F941389D1898347090013840188DD
:1018E000C1EB83C621880547138921889384C18170
:1018F000636BD70003D541889545EFF0CFC07D8954
:1019000019C12380040093874187904393864189BE
:1019100094428C20158E9386418713874189636199
:10192000B6040346090085476311F6041386C18790
:101930001C42B745030093851540B387B702B7A58E
:101940002600938595ECAE971CC213064006B3F7AC
:10195000C702938727039CA09C421CC3EFF01FBEC5
:101960001C20BDD723000400A5B793072003E5B7CB
:101970001C2093848187A5C383A7418703A741893E
:10198000998F1307900F6378F704230004001384E2
:1019900041880A208545EFF00FB79377450085EF22
:1019A000EF00502D0A2021668145EFF04FBB238FB9
:1019B0000188238801880A202381018823890188DE
:1019C00021472146F9452300090023800400A38E06
:1019D000E180EFF0CFB89C20E38C07EE03A70187EE
:1019E00083A74187998F13073006E373F7EEEFF073
:1019F0007FAAF9BDEFE2CFFF41118545414502C203
:101A000002C402C6EFF0AFF28D477C82C1473EC6EA
:101A10004C008D47371501403EC4EFF04FCA894551
:101A200037150140EFF04FD6854537150140EFF0EF
:101A3000AFD541016FE00FFEEFE28FFB0145EFF004
:101A4000CFF74145EFF04FF53565EFF0EFF5054580
:101A5000EFF0AFF61305D003EFF02FF165DD6FE087
:101A60006FFBEFE2EFF8EF00F020B78702409843FA
:101A7000D176FD16758F98C39146A38ED188D84331
:101A8000B70600808506558FD8C303A707101367D4
:101A9000170023A0E7103787024083270710858BA4
:101AA000EDFF0547238CE18603A7418723A8E18644
:101AB000EFF04FBB6FE00FF6EFE2EFF113844188D8
:101AC0000A208545EFF02FA4AA840A208145EFF073
:101AD0008FA3AA890A209545EFF0EFA293F744005F
:101AE000638207109397390163D6070E2A8993F70B
:101AF000040259E5A1CFB78602409C427D771307C7
:101B0000F77FF98F9CC22685A93F83A7C18613075B
:101B1000000293F7070F6390E7020A201384C1893C
:101B20001C20898B99CB1146F945EFF04FA303A7F1
:101B3000418723ACE1886FE04FED0146F945EFF0B6
:101B40000FA21C2093E717001CA0D5B70A2021661E
:101B50008145EFF0CFA0A38E0188238F01882388D1
:101B60000188238101880A20238C0186214723894B
:101B700001882146F945A38EE180EFF04F9E65BFB5
:101B8000238E01888DCB0A20C145EFF0CF971189B4
:101B9000B786024001E91379F9018547B78602400B
:101BA000630CF9029C42056713070780D98F9CC21A
:101BB0002685453D49B73747024083270780ED9B7F
:101BC0002320F7800547A388E18803A7418723AA3C
:101BD000E18895B7B78602409C427D771307F77F6F
:101BE000F98FF1B72685EF00F008374702408327C9
:101BF000078093864187ED9B2320F7800547A388C4
:101C0000E188984223AAE18883A7C18613070002CE
:101C100093F7070FE391E7F29387C189982313762F
:101C20001700E30A06F09042938681898C420D8E5C
:101C300093053006E3E1C5F023A006001347270013
:101C4000B7960240945298A3FDB5EFE26FD737964E
:101C50000240B7067000370760005C4AF58FE39ECC
:101C6000E7FE83C7D1899384D18995C703D541887D
:101C7000F94513844188EFF00F891376C5FF4206BA
:101C8000937715004182638A0714136626000A20A1
:101C9000F945EFF0CF8CB787024083AC07010964A8
:101CA00003AC070083AB470003AB870083AAC700E0
:101CB00003AA870183A9C701B797024003A9870137
:101CC00013040471EFF0AF97379D02407D14420476
:101CD00029454180652909C483270D00858BFDF7BF
:101CE000138781855C33502337840240A207D18F4C
:101CF0003CC003C7918583C7818537850180220752
:101D00005D8F83C7A18585451305150CC2075D8FBF
:101D100083C7B185E207D98F7CC0B707200023288D
:101D2000F410B7070200938707022326F410EFF0A0
:101D30008F96B7350020138D8152094693854571E2
:101D400013858152EFF0CF86B7150020938D814B1C
:101D50001D46938585D61385814BEFF08F8923A48B
:101D6000B18923A6A1892328940123208401232259
:101D700074012324640123265401232C4401232EBF
:101D80003401B797024023AC2701EFF0AF8D9C20C0
:101D900013844188B1E70A2021668145EFE03FFCCA
:101DA000238F018823880188238101880A20238CBE
:101DB00001862389018821472146F94523800400B3
:101DC000A38EE180EFE0BFF905472380E18803A7F8
:101DD000418723AAE1886FE06FC21366160045BDF4
:101DE0000A20F945EFE03FF21376C5FF42069377EC
:101DF0001500418291CB136626000A20F945EFE0D9
:101E00001FF69C20F1F341BF13661600FDB783A7B0
:101E1000C1861307000293F7070F639FE700B79788
:101E200002409C533707FE1FF98F99C7EFE24FBC62
:101E3000EFF0BFE16FE00FBE8280EFE26FBB0D25D8
:101E40008D21EFF03FA2E1376FE0CFBCEFE24FBA58
:101E50003787024023280700544D5C412E842166B9
:101E6000D58F14458145D58F5445D58F5451D58F85
:101E70005455D58FB706100093860620D58F1CC306
:101E8000545D1C5DD58F3441D58F7441D58F344559
:101E9000D58F7445D58F3449D58F7449D58F5CC3A0
:101EA0003C4D1CC77C4D5CC734597C55D58F74594B
:101EB000D58F3451C206D58F1CCF745D3C5DD58F54
:101EC0005CCF0327C50883270508D98F0327450959
:101ED000D98F032785092285D98F379702401CCFD8
:101EE000EFE0FFE72146F9452285EFE05FE7054592
:101EF0006FE04FB2EFE22FAE31718545AA84716574
:101F0000EFF00FA185472392F188EFF0FFB237473A
:101F100002408327078009641304047193E7470094
:101F20002320F780EFE0FFDC13894188EFE03FF1E9
:101F3000B79902407D14420429454180812C09C48F
:101F400083A70900858BFDF78355090093070004DB
:101F500037042000130700084800BEC222C93ACD4A
:101F60003ECF02C402C602C802D402D802D002DEAA
:101F700082C882C482CA82CC82C682C082CE82D00B
:101F800082DE02C182D282D882DA82DC02C3EFF022
:101F9000FFEBDC30D820B7860240A207D98FBCC245
:101FA00098309C203785018022075D8FBC208545B5
:101FB0001305150CC2075D8FBC30E207D98FFCC238
:101FC000B707020023A886109387070223A6F610FE
:101FD000EFE07FEC29616FE04FA3EFE26FA1B797CD
:101FE0000240C04B13170401635A07021377040819
:101FF0001DC303A7C186C1461377070F6319D70016
:10200000F847B7060080584714C323A407001305F8
:102010000008EFE0BFE32165EFE05FE39317F40012
:1020200063DA07029377040489C713050004EFE01D
:10203000FFE19377140081C70545EFE03FE1635866
:102040000400EFF07FA737050080EFE03FE0416537
:10205000EFE0DFDF6FE00F9CEFE28F992A8413053A
:1020600040068522EFE05FC823A6A186EFF09F9887
:102070003C3058202285B98F5830B98F374703003C
:1020800013071740B387E70237A72600130797EC1B
:10209000BA9723AEF186EFF0FFE5B7350020138441
:1020A000815209469385457113858152EFE05FD0D7
:1020B000B71500209384814B1D46938585D61385E3
:1020C000814BEFE01FD323A4918823A68188096761
:1020D000B7E700E023A4E710A38607446FE08F93DF
:1020E000EFE20F9139719307405F3ECA9307405B5F
:1020F0003ECC8567938787263ECE930720033ED04C
:10210000930730103ED2B727554085073ED4B71706
:102110000000938767443ED6B71700009387474275
:102120003ED8B71700009387473E3EDAB7573412C0
:10213000938787672A8948082EC632C4B68402DC92
:102140003EDEEF00901B2A8419E92246B245A6869E
:102150004A85EF00700E2A842685EFF0FFEF228576
:1021600021616FE02F8B83A7418137177A00130716
:102170000720B3D7E70293F7F70F2381F18A1307FC
:10218000803EB387E7022390F18A8280B7F700E0B0
:10219000D8438146799BD8C303C7218A3306A70257
:1021A00090CBD4CB98431367070198C39843136728
:1021B000170298C3D843058B75DF9843799B98C362
:1021C0008280B7F700E0D8438146799BD8C303D714
:1021D000018A3306A70290CBD4CB9843136707013B
:1021E00098C398431367170298C3D843058B75DFCC
:1021F0009843799B98C38280EFD29FFF2A84116510
:10220000011185451105EFE09FF2930700207C82C4
:10221000371501408D473EC44C00E147130505804A
:102220003EC6EFE0DFC922C837440140B7070800C7
:102230000C08130504803ECC02CA231E0100EFF0F7
:102240002F8E854513050480EFF04F9705616FD001
:102250007FFCEFD25FF8B7440140AE893289014478
:1022600093840480634524014A856FD01FFA930547
:1022700000042685EFF06F967DD9B38789008385AA
:10228000070026850504C205C181EFF08F94D9BFF0
:102290007325103482807325203482807325303476
:1022A0008280EFD2FFF483A7418741113EC6EF1031
:1022B00000181189630305149387C18B9843B246B4
:1022C000998E377700200327874105836376D700EF
:1022D000324798C3EF30D038EF30B07283A7818D8A
:1022E00091C7EF30103A19E123AC018C9384818BB4
:1022F0009840B247998F1307703E6376F700EF203E
:10230000800FB2479CC09387418A9843B246130618
:102310004006998E03C7918C3307C70263E6E60037
:10232000324798C3EF10C06DB77700209387C73D41
:10233000D84711CF1387418B1043B246918E1306B5
:10234000703E6376D600B246DC4314C38297B774FE
:10235000002083A74438A9CB1387018B1C43B246C6
:102360001306A00F9D8EB777002083A74745ED8306
:10237000B387C70263E9F600B2471CC393874438AA
:102380009C4B91C382979387C18A9843B246998E9A
:102390003D671307F7A56379D70032479384443824
:1023A00098C3DC4891C3829732459384818A7D2CFF
:1023B0009C4032471D8FBD679387F7A563F5E70003
:1023C000952CB2479CC003C7418DBE841377F70F8D
:1023D0000DC703C7418D1377070C1DE3B7770020A6
:1023E00083A7C74599C30545829703A7418723A2C1
:1023F000E18C93070004238AF18C41016FD09FE1A7
:1024000003C7418D1377070415CB83A6418C03A71F
:1024100041871389418C158F93064006E3FFE6FC44
:10242000B777002083A7C74599C30145829783A743
:1024300041872320F900930700F875BF03C7418D3A
:1024400062076187E35B07FA83A6418C03A7418794
:10245000158F93064006E3F2E6FA238A018C71BFDA
:10246000EFD21FD9377500201305C546EF1090191C
:102470006FD05FDAEFD2DFD7B77700209387C73FFF
:10248000D8573774002088D313674700D8D71189ED
:10249000930704449C4F1304044401CD99C30145A0
:1024A00082975C4C99C3014582970545AD226FD058
:1024B0007FD699C3054582975C4CF5DB054582972D
:1024C000FDB783A78188232005009DCB944363DB60
:1024D0000600D4479042634506029C4363D407003C
:1024E00023A4D18883A7818891650146FD153548CD
:1024F000B7080080944363D7060019C223A4F1886B
:10250000014582809443139306016342030494437C
:1025100093F606108DCE944393F606208DCA94430D
:10252000C182ED8EF11614C16371D802944393F603
:10253000060281EA19C223A4F1889C475CC10545C3
:102540008280944393F61608F5D62320050023A035
:1025500017010546DC4779BF03A78188B7060080CD
:1025600014C3584723A4E1888280EFD27FC883C771
:10257000418D93F7F70F81E78547238AF18C03A7F5
:1025800041879387018C09CB98C3B777002083A735
:10259000074682976FD01FC80547FDB7B7F7FF1FE3
:1025A00003D567701375050F8280EFD27FC4B777AC
:1025B000002083A707460149B9C783A48186A1C427
:1025C0009C4003A984001384018C63DC0702EFF0B4
:1025D000FFFC144081471306000813083006A16869
:1025E000130300036304C5006312650203A7418758
:1025F000158F6364E80063FBF8009C4086078583C1
:102600009CC0232004004A856FD0DFC09840E35A65
:1026100007FE8507C1BF03A74187B77700209387CF
:10262000873788A3239107002392070098C7A380C8
:1026300007008280EFD2DFBBB77400201384C4464A
:102640005C4041116C001385C4463EC62322040041
:10265000EF10202EB2476C001385C4465CC05C446A
:102660003EC6EF10002D41016FD0DFBAB7770020D2
:1026700093878737982319E388C782809847930602
:10268000703E3307E54063F3E602EFD27FB6BA232C
:1026900088C7914663F7E6000145EFF0DFF76FD09A
:1026A0007FB70507BAA3EFF0FFF8D5BF8280EFD25E
:1026B0003FB42A840145EFF01FF6B77700209387D7
:1026C000873711C8054798B3B7770020094723A477
:1026D000E7426FD03FB4A3800700E5BF82800328A4
:1026E0008503630B0802EFD2BFB0FC5D014791C7C1
:1026F0000507420741839C43DDBF83A7050891C7B7
:102700000507420741839C43DDBF81460146814561
:10271000029801456FD01FB001458280014582803B
:10272000EFD29FAA5C42032A85000329C500004915
:10273000AA8488239C33B289A2075D8DEF10C07BE9
:102740009355650093F5C503B305B0404E85EF2062
:10275000B03259E5DC44984C03DB8900998F63E47F
:10276000670163180B004E85EF20F03705456FD0E9
:102770003FA94A9A4E890356A900B30A8A40832B7F
:10278000490063F4CA045686DE852285EF6030373F
:102790008357A9009844330444413E942286B3856C
:1027A0005B013A85EF60B0352A9403290900E314F0
:1027B00009FC4E85EF2030339C4C80C8DA979CCCC6
:1027C0009C4093E747009CC055B72285DE85EF60AB
:1027D00010338357A9003E94E39957FD8044F1B725
:1027E000014571B761CEEFD23F9E832BC5001C4DD2
:1027F000035B8600BA8AB387FB40368A32892A8413
:1028000063E4670163170B004A85EF20D02D6FD07A
:102810003F9F1C450449B289BE9B03D6A900338C57
:102820009B4083AC49006377CC066286E6852685AB
:10283000EF60F02C83D7A9001844B3847441BE9490
:102840002686B3858C013A85EF60702BAA9483A904
:102850000900E39409FC4A85EF20F028032884034B
:102860006305080483451A0083470A001448A2053B
:10287000DD8D83472A005A875686C207CD8F834550
:102880003A002285E205DD8D02981C44232C0400C9
:102890001CC8B5BF2685E685EF60702683D7A900E2
:1028A000BE94E39687FB04445DB7184C1C4004C8F3
:1028B0005A9793E7470018CC1CC091BF82801C49EF
:1028C000F1C7EFD27F90328AAE842A8455CA832A18
:1028D00085005845835B86003289BA9AC20A93DA2A
:1028E0000A019399070193D90901338B3A410356A1
:1028F000A900420B135B0B01032C49006376CB0646
:102900005A86E2853E85EF60901F0357A9001C445C
:10291000B3056C0133075741BA99C20993D909012C
:102920003E854E86EF60B01DB307350103290900CF
:10293000E31909FA184C1CC852855E9718CC184048
:102940001367470018C0EF20101AFE38184C268570
:10295000B38B77415C44239B7403998FDEB4EF20E3
:10296000107301456FD0DF893E85E285EF60301935
:102970000357A900B307E500E31A67FB1C447DB7C2
:102980000145EDF22E85EF306039E9BF7D5582803B
:10299000EFD21F862E84B7350000AA849385E58B7D
:1029A0002285EF20507EB725000022859385E56DB6
:1029B000EF20D07DB7250000228505469385C5719F
:1029C000EF20907D9C20014593E787009CC06FD04D
:1029D0007F8419C93305A040A5679387C75C137529
:1029E000F50F3E950821828001458280EFD25F80FD
:1029F0009307C003B387F502377400201307C4336D
:102A00002A89AE841306C00381451304C433BA97E0
:102A10003E85EFD0FF80630709001306C003CA8517
:102A2000EF60F00D9305C003B385B402A2959C45F9
:102A30009CC9DCC96FD00FFEEFD2EFF92A8A377537
:102A400000204111AE89B2848145614613054538A5
:102A500036C6EFD0EFFCB246377400201309C43FEE
:102A6000B68519461305C900EF6070091146D28575
:102A70001305C43FEF60B0081146CE851305490029
:102A8000EF60F0071304C43FA1E0B7070001FD1792
:102A90001CC4814483C7C18C63CFF402EF10803D16
:102AA00085475CD01567B77700209387073F1307EA
:102AB00007E298C31167130787A9D8C3254798C7AA
:102AC000014541016FD06FF41146A68513058400BE
:102AD000EF60F0027DBF93F5F40F0145EFF01FF1B9
:102AE00085044DBF1841B77700209387073F98C3EF
:102AF0005841D8C3184598C782801855B757341223
:102B000093878767631AF712EFD2EFEC1C512A8480
:102B10002545638B07103779002013064004814553
:102B20001305C93FEFD0CFEFB77400201306C002E2
:102B3000814513850444EFD0AFEE1306C002A28591
:102B400013850444EF60A07B9389044403A74901E3
:102B50004A869387044425EBA56603D7C65A938615
:102B6000C65AAE222E97CE22F6222E97369793166D
:102B7000270163DD060AD8CBD84B9356E700FD8AC0
:102B800089EAB746F8FFFD16758FB7060500558F21
:102B9000D8CBD84B93563701FD8A89EAB746F8FF60
:102BA000FD16758FB7065000558FD8CBD84B9316AE
:102BB000670063CA0600B70600FEFD16758FB706EC
:102BC0000014558FD8CBD84B9356B70189E6B7067A
:102BD0000040558FD8CBA946A384D18C8D46238441
:102BE000D18C9306C0122395D18CD85311E7372787
:102BF00000001307274CD8D3D44B014513D7E60068
:102C00007D8B2386D18C9307C63F98CF13D736018F
:102C10007D8B130620033307C702D8CF13976600B6
:102C2000635407000947B8C36FD02FDEF976FD164D
:102C3000758F8966558F81B71305F00F828003C6A3
:102C4000C18CB77700209386C73301479387C7337A
:102C50006317E60081476313F7020145828003A8EA
:102C600007036317A80009C50545EDD998A182801F
:102C700005071377F70F9387C703D9BFD05A631996
:102C8000A60019C50545F9D993E707F89CA18280EC
:102C9000850793F7F70F9386C60375BFEFD2AFD3BF
:102CA000377900202300050003C7C18C4111930729
:102CB000C93381441309C933631797001305000210
:102CC00041016FD08FD49387C70383A647FE6381EA
:102CD0000618850493F4F40FC5B7B777002083A7CF
:102CE000C73F6C003EC6EF20701311469305C40227
:102CF0006800EF60C0606C004E85EF201014130672
:102D0000C0033386C402B7250000938505724E8543
:102D10004A96EF2070149547377500206C002328E1
:102D200034031CD01305C546EF00B040A6852285AC
:102D3000EFF0DFCB014569B709476390E70AEF5031
:102D4000F02CAA8963030512930AC4021146D685A2
:102D50006800EF60C05A324A370500F0EF10E01CFF
:102D6000337AAA00370500E0EF10201C6300AA04A4
:102D7000B77500209385C5466800EF1020631DE5F8
:102D8000B777002083A7C73F12346C004E853EC63C
:102D9000EF5090041DE1D68511466800EF60205683
:102DA00052306C004E85EF50301E39A0123493859E
:102DB00081844E85EF50500201C5EFF09FC109B7E5
:102DC0001306C0033386C402B72500009385457EF1
:102DD0004E854A96EF5030233DBF0D471305100234
:102DE000E390E7EEEF30802F5C4412346C005EB964
:102DF000B777002083A7C73FAA893EC6EF20D01728
:102E00002A8A11C54E85EF20707152857DB79305D2
:102E1000C003B385B4024E85CA95EF209036B7251E
:102E200000004E859385C56DEF20B0369547A68589
:102E3000228523283403232A34031CD0EFF01FBB40
:102E4000377500206C001305C546EF00902EDDB5E8
:102E500004A1DC4DC4C12E84E39007EE0345840237
:102E6000EF20D008AA89E31A05E6454591BDEFD2C7
:102E70002FB8832785084EB52A8481C79E279D8D4C
:102E80004EB52285EF20B02009CD8347640222850C
:102E900093E727002303F402EF40506505456FD008
:102EA0006FB7B777002083A70745A183858BFDD730
:102EB00083476402858BFDD38947A303F40205474A
:102EC00023ACE18CE1BF83C7C18C6376F5041307A3
:102ED000C0033305E502B77700209387C7333E95DB
:102EE000584D232C050050C50CC50CC94CC98D4745
:102EF0006313F702085905C15A3993371600631C4A
:102F0000F700EFD2EFAE93150601C1814EB9EFF095
:102F10001FF66FD02FB08280EFD2EFAB144269441E
:102F2000CDCE23200600328A1306C0033306C50225
:102F3000B77400201387C433AA89AE879384C4333F
:102F40003297032B8700504703298701404B329B60
:102F500063F326013689B30A8B4063F32A0981CBD8
:102F60003E855686A285EF608039B3075501130769
:102F7000C0033387E9024A94330464412697832AC5
:102F8000870091C72286D6853E85EF6040375694EC
:102F90009307C003B387F90223202A01A697984F0D
:102FA000C0CB3309274123AC270163180900984798
:102FB000D8CB98CB98436D9B98C39307C003B38934
:102FC000F9028D470144CE94D84C6318F70063167C
:102FD0000900CE248858EFF09FE922856FD0EFA238
:102FE00091C74A86A2853E85EF6060314A94E3919D
:102FF0002AFB9307C003B387F902A697804749BF0E
:10300000EFD28F9C00422320060055C4AA87694551
:10301000D9C51305C003B387A70237750020130570
:10302000C533B77A00208144AA9703AB070393877F
:10303000CA3FBC43938ACA3F898B99E39304700CBF
:103040009307805C63F487001304805C931C040185
:10305000328A2E8993DC0C01130C800C0146E68524
:103060000145EF20202DAA8929C948412286CA8519
:1030700023AE0A02EF60A028CE855A85EF200066B5
:10308000AA8B4E85EF20202683A7CA0399CB8504FF
:10309000C204C180EFF0CFBCE39284FD4D456FD0F8
:1030A0002F9663D60B005E85EFF0BF92CDBF232035
:1030B0008A000145EDB76945DDB74545CDB7EFD28B
:1030C000AF9000422320060055C4AA876945D9C5A0
:1030D0001305C003B387A702377500201305C53356
:1030E000B77A00208144AA9703AB07039387CA3FAE
:1030F000BC43938ACA3F898B99E39304700C93076E
:10310000005C63F487001304005C931C0401328AA2
:103110002E8993DC0C01130C800C0146E6850145D9
:10312000EF204021AA8929C948412286CA8523AEB9
:103130000A02EF60C01CCE855A85EF50C063AA8B8F
:103140004E85EF20401A83A7CA0399CB8504C20499
:10315000C180EFF0EFB0E39284FD4D456FD04F8A10
:1031600063D60B005E85EFF0DF86CDBF23208A009B
:103170000145EDB76945DDB74545CDB7EFD2CF8401
:103180008329060023200600638E090CAA872E8B54
:103190006945A1C11305C003B387A7023775002095
:1031A0001305C533377A0020B28B930A900C814403
:1031B000114C130A0A44FD5CAA9703A90703FD1AE0
:1031C000C20A93DA0A0163980A0083A70B00C9CBED
:1031D00001456FD0EF828327090163978709EFF0DC
:1031E0002FA80357690719E34545E5B783270A0167
:1031F000858B99E3E36A37FF03244A0063738700F2
:103200003A8463F389004E84131604014182854693
:1032100091E38146DA854A85EF405023AA844A85A6
:103220008DE4EF40B02C83A70B00B3898940AA84BA
:10323000A29723A0FB00229BE38C09F883270A01B5
:10324000858BB5FFEFF0EFF869B763999401EF4014
:10325000F02983270A01858BBDF379B7EF40102948
:103260002685CDB76945B5B75D45A5B79307C003BA
:10327000B307F502377700201307C733BA9703A8BF
:10328000070215476307E800DD47232006003E8557
:103290008280EFC2FFF5D84F8D476318F700EFF03B
:1032A000FFEDAA873E856FC0FFF601E7EFF05FD51F
:1032B000CDBF89469307A00FE316D7FEEFF03FE09E
:1032C000CDB7EFC2FFF2A147AA840021638AF502BD
:1032D00063ECB70085476381F502894713642400D6
:1032E000638EF5006FC01FF3C147638EF50093072F
:1032F000000413640404EDB71364140080C0DDB748
:1033000013648400E5BF48591364040165D9EF20B4
:10331000F020EDB7EFC23FEC41119305F100AA890F
:10332000A3070100EFF0BF9115C58487939784012F
:10333000E18763D407021304C00393F4F407B38452
:103340008402377400201304C4332694232A040211
:103350002320040241016FC05FEB83C7C18CE3FBF4
:10336000F4FE1307C0033387E402B7770020138409
:10337000C7331389C7333A94544C0D47E39CE6FC9A
:1033800083A709010547DD1793F7F70F636EF70071
:10339000C1452285EFF0FFF29307C003B384F40226
:1033A000CA9423A804026DB71C2093E707041CC02D
:1033B000E5B73777002083C6C18C1307C733814731
:1033C000638FF6001307C703032647FC11CEB777B8
:1033D00000209387C73FD85713670701D8D7B7771F
:1033E000002003C587428280850793F7F70FC9BF86
:1033F000EFC21FE0EFF0FFFBB777002023A40742E6
:103400006FC05FE183C7C18C6371F5029307C0038E
:103410003305F502B77700209387C733AA979843FF
:103420001375F70F118B98C3828001458280B7779F
:10343000002003C5C74182809307C0033305F5020E
:10344000B77700209387C7333E951C5995CF145109
:1034500015475D45639BE60285899A279DC11367E1
:1034600087009AA7377700201307073F144323A04C
:10347000D70A5443184723A2D70A23A4E70A0145D1
:1034800082805D9B9AA7E5BF5D45828083C7C18C22
:103490006377F506EFC2DFD51304C0033305850259
:1034A000377400201304C43341112A9404585D4535
:1034B00085CC185095476319F7025C54232A0402FF
:1034C000B73600003EC65230938606996C002685BA
:1034D000EF20B0442A8901CD2685EF2030044A85AB
:1034E00023200402EFF0EFCE41016FC0BFD283C7AB
:1034F0006402014593F7F7FB2383F402F5B76945AE
:103500008280B777002003A54745358105898280F1
:10351000B77700209387C73F05474111C8CB94DB9D
:10352000D0DB8CDFD8D741018280B77700200547F8
:1035300023ACE7428280EFC2BFCBB777002003A65F
:10354000C74483A64182131786016187630C051463
:1035500083C7C18D614889483388070336980323A0
:10356000C8006311131503431500834805000328A1
:10357000080022033363130183482500C20833E3A4
:10358000680083483500E208B3E86800639C0811CE
:10359000E207E1873E856FC0FFC7B3885702B69840
:1035A00003AEC800631A060763180E061398870156
:1035B000135888418507C207C183E3E0C7FE63173C
:1035C000060193F81500FD57E38608FC8989FD572D
:1035D000F1F193170801636BC80093170301636748
:1035E000C300FD57E378C7FA93170701C18361470A
:1035F0003387E702BA9623A6060001CD10311821C1
:103600002206598E38214207598E38316207518F70
:1036100098C2239806000DA863147E040DC9834E3A
:103620001500034E0500A20EB3EECE01034E250099
:10363000420EB36EDE01034E3500620E336EDE01C4
:1036400083AE08006315DE01238EF18C91B783D819
:103650000801E3E1E8F7139787016187468F99BF77
:10366000E31A8EF415C5834E1500034E0500A20E15
:10367000B3EECE01034E2500420EB36EDE01034EC3
:103680003500620E336EDE0183AE0800E30EDEFB12
:1036900083D80801E3E0F8F31393870113538341C0
:1036A000C68F09BF3A883A83814F014F8147E14273
:1036B0008543094419B7EFC21FB298319C21368A5D
:1036C00022075D8FBC215441C2075D8FBC31E207E8
:1036D000D98F639BF60089E6D9573E856FC0FFB24C
:1036E0000545EFE0DFFCCDBFE5DB2E842A89AA8506
:1036F0002285B289EF00904B65F11C30042037051C
:1037000000F0A207C58F2420C204C58F2430E20434
:10371000DD8CEF009001E98C370500E0EF00F00050
:10372000E38CA4FAD2852285EFF0FFE0AA87E34676
:1037300005FAE147B307F50203A541823E958947A3
:103740005CC5232A2501938759001307950094230C
:103750007D1714B39386F7FF6396F90023180500CD
:103760008147A5BFB687E5B721CDEFC27FA8C44189
:103770002A84DC34C824A2075D8DEF000077A1679E
:1037800093870710938524016304F5009385E40073
:10379000D835DC2522075D8FFC25C2075D8FFC35FF
:1037A000E207D98F5840B98F1844F98F81EB8146D1
:1037B00013866400B1052285EFF0FFEF6FC09FA56F
:1037C000828063070516EFC21FA13A269307900275
:1037D0004111B2892E8AAA8463E8E7004E85EF1072
:1037E000903041016FC07FA2032946008347D90072
:1037F0000345C90013042901A2075D8DEF00E06EA7
:10380000A167938707106304F5001304E900834A56
:1038100014001C200545A20AB3EAFA00EF00E06C90
:10382000E39EAAFA834A54005C2013054060A20A72
:10383000B3EAFA00EF00606BE392AAFA834A34001D
:103840003C200565A20A13050580B3EAFA00EF00E3
:10385000C069E395AAF8930AE4001146D68568008A
:10386000EF50F029D44013068400ADC2183C1C2C44
:1038700022075D8F3C2CC2075D8F3C3CE207D98F4D
:103880006396F60485466C002685EFF0DFE2054B73
:103890007C306820A2075D8D892D8547630FF50276
:1038A0008947E31DF5F26C002685EF10803FB7775E
:1038B000002003A74738E30307F293874738DC4724
:1038C000E38E07F06C002685829709BF81466C0065
:1038D0002685EFF05FDE014B65BFE3010BF0094584
:1038E000292568A0218168B01146D6851305840179
:1038F000EF50F0201146938544005685EF5030205C
:10390000350415099547FD5618207D197D1438B4E6
:10391000A300E9003307FA001823FD1718B0A3032A
:10392000E900E393D7FE9C4CCE85268582977DB532
:103930008280EFC25F8A2A89AE8901469305A00280
:103940000D45EF10301F7D544DC94041AA840545F7
:10395000692B48A8218148B89306E90293075400CF
:10396000154793850184138681837D5503C806001E
:10397000FD17FD16A38B07013388E50003480800F7
:10398000A38007033308E600034808007D17A380DF
:10399000070103C81600A3830701E319A7FC11461A
:1039A000930549001305C401EF507015CE851146EB
:1039B00013056402EF50B0140545052B68A4856912
:1039C000218168B4138509800D2308A8218108B8D6
:1039D00013054060192B28A8218128B81385698018
:1039E00029238327890148A4218148B4A6854A85D3
:1039F00082972A842685EF10100F22856FC0FF80E2
:103A0000EFC28FFCB7740020014493840444E14A60
:103A1000894B054C930CF00FDC446364F4006FC0D9
:103A20002FFE330954039389418283A50900CA9567
:103A30009E29D8458507C207C1839EA9631A7701CD
:103A400003D7A18C63FCE70005041374F40FE9B7F6
:103A5000E31C87FF03C7818C6375F70023A605006D
:103A6000E5B7C849EFF0FFEC83C7818CE39E97FD73
:103A700083A70900CA9723980700F9B7EFC2AFF5EB
:103A80002E8441112A89AA852285B289EF0010125D
:103A900009C5595541016FC04FF71C300420370547
:103AA00000F0A207C58F2420C204C58F2430E20491
:103AB000DD8CA529E98C370500E08529E38BA4FC82
:103AC00018301C2022075D8F3C20C2075D8F3C30E0
:103AD000E207D98FDDDF85452285EFF0DFA5E34BD7
:103AE00005FAE147B304F50283A74182138A4182B4
:103AF000A697D84711C77D55639B0902814A31A01B
:103B00000547D8C723AA2701854AEFF01FA2A2853F
:103B10004A85EFF01FE201ED83270A000547A697CB
:103B2000D4476396E60063940A002398070083272E
:103B30000A00A697D84785476316F7002AC6EFF014
:103B4000DF9E3245E38809F483270A000947A697D8
:103B5000D447E391E6F403A44900138797001306C2
:103B6000E902930654008D070C237D17FD168CB2D5
:103B70000C227D16ECB2E319F7FE056513050580EE
:103B8000AD268327890148A4218148B4CE854A8582
:103B9000829709B7EFC22FE4AE8441112A89B94553
:103BA00026853284EF10406D631E0510CA8522857C
:103BB000EF00C07F631505101C30834904003705F2
:103BC00000F0A207B3E7370183492400C209B3E735
:103BD000F90083493400E209B3E9F900B926B3F9E1
:103BE000A900370500E091261020143038203C3021
:103BF000639CA90813958600518D4207598DE207F1
:103C000085456C845D8D9305E0054C85392E418199
:103C10001375F507C88508301C2022055D8D3C20F2
:103C2000C207C98F283062055D8D01262181488633
:103C300008301C2022055D8D3C20C207C98F28302A
:103C400062055D8DDD24C8863400C04095477D56F1
:103C500013075400B385F6008C217D170CB3B30510
:103C6000F90083C59502FD176CB3E395C7FE0565A2
:103C7000130505809D2C8327890148A4218148B420
:103C8000A6854A8582970DA8A206D18E4207558F38
:103C9000E207D98F03274900B98F03278900F98FDD
:103CA00099C78327C900715581CB1304C9002686A3
:103CB000A2854A85EFF09FDC41016FC00FD5938646
:103CC000818361B77955CDBFEFC28FD244412A8439
:103CD0002E89DC34C824A2075D8D012CA16793874F
:103CE00007106317F5009C388828A2075D8DF52A18
:103CF0009307058091CB8567938767806302F504FE
:103D00002285EF10405E15A8A2854A85EFF0DFA559
:103D1000DC34C824A2075D8DC92AA16793870710E8
:103D2000B9456313F500C945B305B0402285EF10CE
:103D3000A05479F5CA852285A92401456FC08FCD8D
:103D40002286930599024A85EFF0BFA7FDB7EFC21F
:103D50002FCAB77700209387C7395CD193075006E5
:103D6000A309F5029307E006230AF502B74700000E
:103D7000938747B95CC9B7470000938727DB1CCD01
:103D8000B775002099472A842304F502232E0500E5
:103D900019469385554913059502EF5040569307F0
:103DA000C05D1EB8930730032309F40201456FC0BC
:103DB0006FC6EFC2EFC3B1642E8493841435EFF065
:103DC0000FE7118915CDFD1485CCEFE00FFE2A8990
:103DD0007DD5AA87814401E8CA852685EFE0EFF802
:103DE00001456FC02FC332244C403E85EF50205117
:103DF0003A240040BA94C204B307E500C180E1BF91
:103E00005155C5B7EFC22FBDB777002083A74746EE
:103E1000AA891385018E9384018E82978C40A9C94B
:103E200083C7418D1384018E93F7F70F81E7854790
:103E3000238AF18CC2050D46C1810D454440EF1027
:103E4000604F2A8915C52A8432244840A685EF5040
:103E5000004B3E240040BE9465F8EFE0EFEF83A7EF
:103E60000901CE854A85829701C54A85EF10A04792
:103E70006FC0AFB9EFC2CFB741113774002002C293
:103E800002C402C6EF00107A1305C446B7750020BD
:103E900019469385854013059502EF504046B77744
:103EA000002003A7C73F9387C73F1305C4463AC204
:103EB0009847DC433AC43EC623A0019023AE018E4E
:103EC000EF10A03A37480000B747000074003000F8
:103ED0004C00130888CC9387E7D401471305C446E8
:103EE000EF10003341016FC0EFB2931785002181BD
:103EF0005D8D4205418182809317850021815D8D12
:103F00004205418182801357850193178501D98F1E
:103F1000B706FF0013178500758FD98F4167130708
:103F200007F02181798D5D8D8280EFC26FACEFF05B
:103F30009FFD6FC02FAEEFC2AFAB03A40190AA8468
:103F400001EC03A5C18F11C5EF10803219C103A484
:103F5000C18F22856FC00FAC2285EF10603105C183
:103F600098309C2022075D8FBC20C2075D8FBC303B
:103F7000E207D98F5840B98F1844F98FF9DB004018
:103F8000C1B7EFC26FA44041AA84AE891C3008209B
:103F9000A2075D8DEFF05FF63181420541819147C7
:103FA0006306F5002685EF10003431A41C3008208C
:103FB000A2075D8DEFF05FF419813C30137AC503E1
:103FC0002820A2075D8DEFF03FF3BE242A89E3EBA2
:103FD00047FD9E24E3E8A7FCD2852285EF40B04C44
:103FE00071F1CA852685EF10E048370500F0EFF043
:103FF000DFF3370500E0EFF05FF34E89054B930BDD
:1040000004014A85EF10C02611E563130B12032942
:1040100009000DA293074900EDDB83264900F5D680
:1040200018381C2822075D8F3C28C2075D8F3C385A
:10403000E207D98F6382F604CA855E85852E0DED71
:104040001C38834A0401370500F0A207B3E7570183
:10405000834A2401C20AB3E7FA00834A3401E20A20
:10406000B3EAFA00EFF07FECB3FAAA00370500E0FC
:10407000EFF0BFEBE39BAAF858345C2422075D8F76
:104080007C24C2075D8F7C34E207D98FB9C3CE850B
:104090001305C400212EE31705F05C34034AC40065
:1040A000370500F0A207B3E74701034AE400420ADC
:1040B000B367FA00034AF400620A336AFA00EFF0C9
:1040C000DFE6337AAA00370500E0EFF01FE6E30BE6
:1040D000AAECE30909EC034974006820220933695A
:1040E000A90011657D15EFF05FE03375A90011C5DA
:1040F0002685ED26AA8461C14041CE852685EF1034
:10410000604B55E91C340824A2075D8DEFF0DFDE1B
:104110001375F50F99476303F50AC5476309F50859
:1041200085476312F50ACE852685EF40C07761A0EA
:1041300003A901906314390103290900014BE3121B
:1041400009EC1C340824A2075D8DEFF0FFDA13752B
:10415000F50FC547631EF500B3074401A823BC3320
:10416000A2075D8DEFF05FD993074004630DF50260
:10417000854A1C340824A2075D8DEFF0FFD7137524
:10418000F50FC5476319F508229A83473A0003459E
:104190002A00A2075D8DEFF03FD69307C076631C1F
:1041A000F5064E893DB7E39809F2814AD9B7CE8525
:1041B0002685EF40E01E01456FC08F84CE852685A1
:1041C000EF20D032CDBFCE8513050401C522E31BFD
:1041D00005DC1C3803490401370500F0A207B3E7EA
:1041E0002701034924014209B367F9000349340157
:1041F00062093369F900EFF05FD33379A90037051D
:1042000000E0EFF09FD2E30FA9D8C0C08945268512
:10421000EF40700E41BBE3910AE669B3EFB2DFFAFB
:10422000AA894289630F0612AE8AD1453A8AB284BE
:10423000B68B3E8BEF10400479576311051203A42F
:104240004900A20B1C340824A2075D8DEFF0DFCAE1
:104250001375F50F33657501EFF03FC913578500EE
:1042600018B408A4EFF05FC92181420541812205FD
:104270003365650142054181EFF03FC798309C20CE
:1042800008A422075D8FBC20218108B4C2075D8F7E
:10429000BC30116513050550E207D98F13D787008D
:1042A0001CA818B813D70701E1833CB838A83365B8
:1042B000AA00EFF09FC308A0218108B003D58900B0
:1042C000138A818EEFF07FC228A0218128B0035588
:1042D0000A0023030400A3030400EFF01FC1835767
:1042E0000A0048A02181850748B02310FA006381A5
:1042F0000A0203C71A0083C70A0022075D8F83C71B
:104300002A00C2075D8F83C73A00E207D98F99E779
:1043100013074900814719C38327490013D7870032
:104320005CA458B413D70701E18378A47CB42305B7
:104330000400A3050400D1452285EF40D01628A42F
:10434000218128B48357090385C303D7890063FDFE
:10435000E7002686CA854E8585232A873A856FB071
:104360003FEA4441C104F9BF832749012686CE852F
:104370004A858297DDB7EFB2BFE701112A84328503
:104380002ECE36CC3ACA3EC832C6EFF0DFBA09CDDF
:10439000C2475247E2463246F2452A882285EFF06C
:1043A000FFE705616FB01FE77155E5BF18311C21AC
:1043B00022075D8F3C21C2075D8F3C31E207D98F18
:1043C0009386F7FF75576366D70203C72503014538
:1043D000098B0DC3D841630FF70094453D8F758F4E
:1043E00011EB13C5F6FFE98F3385A7401335150090
:1043F000828005458280EFB23FDD03A4C18EC544B3
:10440000014B1389C18E19E06FB09FDFFD1493F447
:10441000F40FFDD87C3C032C040091C7FD177CBC35
:10442000228B6284CDB783294400814A03A54900C9
:104430005C315821A207D98F85EF18311C215146D4
:1044400022075D8F3C2193058400C2075D8F3C31BC
:10445000E207D98F5CC0EF40906A85454E85EF40FA
:10446000C06A4E85EF108006AA8A4E85EF00B067BD
:104470008329440063960902032709001C40631C3A
:10448000E4042320F900A2851545EF00B048138706
:10449000A18E1E235A84B38A57412310570149B76E
:1044A00003A749004E851C33034A0700A207B3E760
:1044B0004701034A2700420AB367FA00034A37005C
:1044C000620A336AFA00EF106000AA9A4E85EF0084
:1044D0009061D28945B72320FB0075B7EFB2DFCEDC
:1044E00044412A899C308820A2075D8DEFF0DFA02F
:1044F00019811375C503D1476312F526FC30E820F6
:10450000A2075D8DEFF05F9FBC302A8BA820A20729
:104510005D8DEFF07F9E9C30AA8C8820A2075D8D78
:10452000EFF09F9D2A8C4A85EF00507AB7770020E4
:1045300083A7074503D7A18E2A8D8D832A97FD8BEC
:104540009389A18E63ECE72003A4C18E814A138A6C
:10455000C18E1DE81545EF00F0392A84630005205F
:104560007146814513054400EFB09FCB8D477CBC5D
:1045700083270A0023208A001CC05146A685130504
:104580008400EF40D05795ACD834DC2422075D8FEF
:10459000FC24C2075D8FFC34E207D98F58486316AC
:1045A000F70298389C2822075D8FBC28C2075D8FD0
:1045B000BC38E207D98F184C6319F700DC30D420DF
:1045C0005A24A207D58F6306F720A28A004051B76C
:1045D000CC4203C8550003C3450022083368680075
:1045E000637C060D93D5860094A38CB393D5060106
:1045F000E182ACA3B4B3630E072A74336C23A20622
:10460000CD8E6364D6146362A81493568900230088
:10461000270114B3935609011359890134A3A30147
:104620002701782C014B058B630F0718638D081841
:1046300058404443D830D4202207558F63150718BB
:1046400094339823A206D98EB8234207D98EB83363
:104650006207558F61E75E2C03C904005146D107FC
:104660005EAC9C30930584002685A207B3E7270142
:1046700003C924004209B367F90003C93400620981
:104680003369F900EF40B0474A2CEFF01F86A8A02D
:104690002181A8B023830400A383040023850400A0
:1046A000A3850400D1452685EF40E05FA8A42181C1
:1046B000A8B4032B4400D5A063090609F43103C351
:1046C0006500A206B3E666006361D60801CB7423D9
:1046D00078332207558F6303E8008148983194218D
:1046E0002207558FB421C206558FB431E206D98E08
:1046F0002E8765AA935689002300270114B3935689
:1047000009011359890134A3A301270174237833C4
:104710002207558FE307E6F0814821B75443EC2385
:10472000F833DC32D0222207A2074D8FD18F631AD3
:10473000F7029C329822A207D98FB8224207D98F5C
:10474000B83262075D8FB68731B74A85EF001058DF
:1047500083D709003385A7402390A9004A85EF003D
:104760009038014B8DA0B1554A8583244900EF0054
:10477000B030CA855A85EF0030579C3003C9040019
:10478000A207B3E7270103C924004209B367F90070
:1047900003C9340062093369F900E31609FC0327F1
:1047A0000A001C406314E4022320FA00A285154588
:1047B000EF0050165A85EF00705183D709003385FA
:1047C000A7402390A9005A856FB09FA323A0FA00A9
:1047D000F1BFFC30E820896BA2075D8DEFF0CFF1CF
:1047E000FD1B337575014205418101E96A24EFF033
:1047F000AFF033757501E31205D883D709003E9DEC
:104800002390A901FC30E820A2075D8DEFF0CFEEE8
:104810009317250163C2070213153B017C2C4D81C0
:104820000E05135C6C006695137CCC0393E71700B0
:10483000330585417CAC4AAC83244900BC30A820B8
:10484000A2075D8DEFF04FEB9C302A8B8820A207EA
:104850005D8DEFF06FEAFC30AA8BE820A20793DBB6
:104860006B005D8DEFF04FE94E054D81131635005D
:104870003305CB0013FBCB03832749003305654188
:1048800042051357860041815440D8B31357850021
:10489000F8B323800700A380070023810700A381CA
:1048A0000700D0A3E8A385480147E39306D2E313AA
:1048B00007E423222401B5B3EFB29F90032C4500F7
:1048C000011132CA03477C00AA8D03456C00220700
:1048D00083DB0503598DAE8CEFF00FE28966B37769
:1048E000D500138ACBFEA146334ADA0283D48D0069
:1048F00009677D173EC63379E500B1144209C20449
:1049000013590901C1800144514D3ACC420A135A4E
:104910000A0193163A0093970601C1833EC8938714
:10492000DBFE3ECE89E4014505616FB03F8DE24775
:10493000A68A337BF900B24733EB6701F24763C6BF
:10494000F400C24A8967336BFB000146D145094533
:10495000EF00501EAA8939C948415146E285EF400F
:10496000101A03A64D0083AB49006A9623A2CD001E
:1049700003D6AD00B306A6412395DD00568D63092D
:104980000D0403D4AD0063738D006A84420441803A
:1049900001E483AD0D00E5B7814509460D45EF0003
:1049A0007019AA8511E54E85EF00F0137D55ADBF56
:1049B00003A64D0002A522A550C14E85EF00D032BE
:1049C000B3068D40139D0601135D0D01E3130DFC2D
:1049D0005A85EFF08FD12383AB002181A383AB00F5
:1049E00013854A0142054181EFF02FD02381AB00AE
:1049F0002181A381AB00D14523850B00A3850B004A
:104A00005E85EF40402A03A74C0152462385AB0048
:104A10002181A385AB00CE8566850297B38454417E
:104A200052994E85C2044209EF00F00BC180135920
:104A30000901228DC5BD3C296389B700B7770020E5
:104A40002CA9A309050023A4073882805E2D184DE8
:104A5000B306F7002388B60E938627008507C207A2
:104A6000C18356ADBA972388C70E82805A2D1C4D3C
:104A70009306170056ADBA972388B70E82805E2D35
:104A8000184D13D68501B306F7002388C60E93860A
:104A90001700C206C182BA9613D605012388C60E36
:104AA00093862700C206C182BA9613D68500238852
:104AB000C60E938647008D07C207C18356ADBA97CD
:104AC0002388B70E828015C15E2D184D1306300461
:104AD0009386170056ADBA97FD562388D70E5E2DE4
:104AE0006376F60093F6370091E282809386170092
:104AF00056ADBA972388070EDDB763020518EFB2EB
:104B00002FEF0451DD57638904162A890146930566
:104B100040130145EF001002C8C82A87FD57630DF6
:104B20000514BC3899EFBC280546638CC700F11703
:104B300093F7F70F6377F60083A70182850723A019
:104B4000F182404303A50182854780CC88C01CA028
:104B50001CB099473CA0A3010400EFF0CFBA9357D3
:104B6000850048A05CB09357050161817CA068B0C6
:104B7000804C294723040400A304040023050400F7
:104B8000A305040023060400A30604002307040071
:104B9000A3070400BC286388E700F11793F7F70F19
:104BA0000547636EF700834749005CA483475900BB
:104BB0005CB4834769007CA4834779007CB42308F4
:104BC0000400A308040023090400A3090400230A25
:104BD0000400A30A0400230B0400A30B0400230C0D
:104BE0000400A30C0400230D0400A30D040083455E
:104BF00089028147414613970701418381466376C5
:104C0000B7003307F900834697023307F40054AF27
:104C10008507E392C7FE1307C4029307C406230067
:104C200007000507E39DE7FE1307C40E2380070076
:104C30008507E39DE7FE3755826313053536EFF0B0
:104C40008FAC935785002306A40EA306F40E904C58
:104C50009357050161812307F40EA307A40E239E39
:104C60000400814713074004B306F6002388F60EBC
:104C70008507E39BE7FE81473E856FB0AFD9D957E3
:104C80003E85828011CDEFB2AFD6005101C84848B1
:104C900011C1912D232A0400232C04006FB08FD75B
:104CA000828063000518EFB2AFD400516309041687
:104CB0003828A1476315F71698319C2122075D8F8C
:104CC000BC21C2075D8FBC31E207D98F18546398AD
:104CD000E714AA84B1452285EFF0FFD52685EFF0D1
:104CE000DFE1631905120546930550032285EFF0B5
:104CF000FFD591452285EFF07FD71146930520031C
:104D00002285EFF0BFD40854EFF02FA2AA852285A8
:104D1000EFF0FFD61146930560032285EFF01FD315
:104D20004850EFF08FA0AA852285EFF05FD51D4691
:104D30009305D0032285EFF07FD15E2C184C0546F9
:104D40002285B306F7002388C60E13862700420685
:104D5000418252AC9386170083C59402C206C18279
:104D6000BA962388B60E93863700C206C18256AC27
:104D700083C5A4023A96BA962308B60E1386470056
:104D80004206418252AC83C5B4023A962388B60EDD
:104D900093865700C206C18256AC83C5C402BA9638
:104DA0002308B60E138667004206418252AC83C5C3
:104DB000D4029D0732972388B60E5EAC83C7E40207
:104DC0002308F70EEFF03FD04E2C48489385050F8F
:104DD000C205C1814525034784021C4C4C4848400C
:104DE000D8A70347940203A94400D8B70347A402F5
:104DF000930630041386C184F8A70347B402F8B7BA
:104E000023A204002687EF30D006268523A22401A2
:104E1000EFF05FE73C3885073CB885477EAC6FB064
:104E20006FBF8280EFB2CFBC23A2019223A6019074
:104E300023A801901128BD24B777002083A7473EFF
:104E400091C382976FB00FBD374700201307F77AE1
:104E5000719B23AAE18EB777002083A78744231193
:104E600007008D07F19B93960701C182BA9716A39D
:104E70002302070023ACF18E0546D0A396A3B6A368
:104E800023A8E18E828049C183A7418F636EF50616
:104E900083A5818F637AB50683A6018F130685FFEC
:104EA000230E05FE1387018F6373D60010C383564C
:104EB00085FFBE966304D60203C84600631008024D
:104EC000638ED5000C436393B60010C38E22231C5F
:104ED000B5FE9622B305F640BE96AEA28355A5FF59
:104EE000B386B7006302D60203C84600631E0800FB
:104EF000032807006313060114C3035785FF9AA212
:104F0000035785FFBA97AEA382808D05C205C18184
:104F1000F199C205C1813147AE8763F3E500B1471E
:104F20003777002003268744C207C1830D06719A94
:104F30006360F60A03A7418F636DE50883A6818F3E
:104F40006379D508930685FF835885FF998EC2063D
:104F5000C182938588FF958DC205C18163EAF506FC
:104F60006389F506330317010348430063140802FD
:104F7000938586001388018FAE97032E0800C20721
:104F8000C18383580300B305F70063166E02232024
:104F9000B80015A01388470163ED050393858600CB
:104FA000AE971388018FC20703230800C183B3059E
:104FB000F700E3EE65FC23901501B6A123820500FE
:104FC000231CF5FE96216306D60036973EA3828009
:104FD0000145828039C51307350042074183719B23
:104FE00042074183B146BA876373D700B147377729
:104FF000002003268744C207C1830D06719A01452C
:105000006362F60203A7018F83AE418F9385018F00
:105010003303F640B306D741C206C182615E63E442
:105020006600014582803385DE00034845008358D1
:105030000500631708063308DE4046986362F806E9
:105040001383470163626804A107B697C207C1834F
:105050003388FE00231018012311D8002302080012
:1050600085461EA154A1835608006304D600F69617
:10507000BEA26319A70083A6818F8147502301EE4A
:1050800091C398C12105828085475CA1DDB71A23B1
:1050900085477697E5B7E39CE6FEEDD794C1DDB78B
:1050A000C686B5BF83A5818283A6C182B76700206B
:1050B0009387F7A137770020F19B1307474A1385A1
:1050C000060103D805002320070001466318C80025
:1050D000890611078905E396A6FE828083280700CA
:1050E0000506420623A0170183D806001CC341828F
:1050F000C697E9BF9D4763EDA700B77700200A0573
:105100009387474AAA97884309C5184198C3828064
:105110000145828099C99317250037750020130532
:10512000454A3E951C419CC10CC18280EFB2AF8ABA
:1051300098319C21AA8422075D8FBC212E84C2074E
:105140005D8FBC31E207D98F5841639FE70018306B
:105150001C2022075D8F3C20C2075D8F3C30E20798
:10516000D98FDCC06FB06F8A03A5C1900149930944
:10517000400605C11841DC40032AC5006311F7044D
:105180008545EF00D0579307190093F7F70F63F7A2
:10519000290383A74191C5DF984319CFD440631DEC
:1051A000D70014301820A206D98E38204207D98E95
:1051B00038306207558F98C3DC47F1BF3E8952856E
:1051C0004DBFEFB2EF82411132C636C42A84EFF0F0
:1051D000FFF53246A246814719CA18321C2222071F
:1051E0005D8F3C22C2075D8F3C32E207D98F1CC421
:1051F000814799CA98329C2222075D8FBC22C20740
:105200005D8FBC32E207D98F5CC441016FB08F80E3
:10521000EFA21FFE58CD138741908348070041112C
:105220002322050023240500232605002309050267
:105230002320050213831800A30A15032328050160
:105240002A843EC623006700EFF0BFF7B2472285ED
:10525000829711E993870190984318C080C32285F3
:1052600041016FA03FFB0144DDBF23AEA18E8280D0
:105270000345250305898280AA870145A5C5BDC3CD
:10528000139605014182328863DB05003308C04074
:10529000BA27420813580801054563650705D42756
:1052A000D84381C60D456391A6020D8F93860701F1
:1052B00005456369D702D8C3BA2701453297BAA713
:1052C0009A273A9692A78280FD16C206C182854827
:1052D000054563E9D80063D70500B62763E40601F6
:1052E0000D8FD1BF8280EFA21FEF01440DCDAA85A3
:1052F00001440D498549FE25FD17C207C183FEA55E
:105300009DE3DC2584411D4563882701FD17C20705
:10531000C18363EDF9001945EFF0DFDF0504137475
:10532000F40FA685E9F822856FA03FEE2E85EFF0F9
:105330009FB5EDB7EFA23FEA8547630DF50031C594
:1053400089476306F5048D476305F504014422850A
:105350006FA0BFEB8144D104B904C204C180894766
:10536000B2892E8963E9C70279CA1945EFF09FD83F
:105370002A8469DD23220500231425012315250134
:105380002320050023063501B5A0D144E9B78144A7
:10539000E1B78144E9B78D470144E31AF6FA1D45A8
:1053A000EFF05FD52A845DD1B3079500CD07F19B5F
:1053B000377700205CC193070744DC438D04F198E4
:1053C00093879703F19B23063501232005002314BF
:1053D0002501B38497409309074463739900CA84F5
:1053E000854726A47EA4B30499400D4A2289854AA4
:1053F0006347900085477EA4A306040089BF1D452E
:10540000EFF05FCF09E52285EFF0FFED81B783A7CD
:10541000490023164501232005002320A900938776
:10542000970306A5F19B63F3F400A6871307050114
:105430003EA558C1231755019D8C2A8955BF9387D6
:10544000350013853401F19B71993E9542054181E8
:10545000EFF05FB82A84E30B05EEAA94CD04F1982F
:1054600044C123142501231525012320050023060B
:10547000050049B71E2563FAF504EFA27FD72A84F9
:10548000AE84B387F5402E2463E995025C2481EF56
:10549000638B95004C402285818DA695C205C18104
:1054A000EFF0BFA62A84084026A406A419C1EFF095
:1054B0009FE3232004006FA0FFD51A248D8CC20423
:1054C0003E971AA4C18000407DBF8280814719E1C8
:1054D0003E858280850793F7F70F0841CDBF01C550
:1054E0007E2585077EA5828009CD99E182803A8557
:1054F0009E2516251841B697C207C1831EA565FBD8
:105500000CC18280EFA2DFCE2E84EFF0FFFD22855A
:10551000EFF0FFFC6FA01FD03DCDEFA2DFCB2A84C0
:10552000AE845955ADC51A249E256362F70601491C
:10553000014A8359A400BE24B3894941B387274156
:1055400063C9F904939907014840CC4093D90901F4
:105550005295CA954E86EF30905A4E9A3E24420A92
:105560004E994209135A0A011359090163944701DC
:105570000040014ABE246365F900844099CC01498A
:10558000BA249E246316F7029C409DC35D556FA00C
:10559000DFC7C20955BF5955828009C801493A245D
:1055A0001E246314F7001C40F5F3C1F40145C5B790
:1055B0007DF441B7EFA23FC203294500AA89834782
:1055C000990003458900014AA2075D8DEFE0DF9253
:1055D000937AF50F03A4819031099384819001E4BB
:1055E00001456FA09FC21C280145639457035C4886
:1055F0008DC3084CCA864E86A285829719C9630856
:105600000A005C442326FA009C4080C05CC4054527
:1056100081495C44228A71F53E84D1B7814799C99A
:1056200098319C2122075D8FBC21C2075D8FBC3160
:10563000E207D98F1CC101458280814799C9983101
:105640009C2122075D8FBC21C2075D8FBC31E20720
:10565000D98F5CC1014582804CC910CD8280EFA2F8
:105660009FB7AE842A89D1452685B289EFF0DFC085
:1056700015C9014681450545EFF0DFCB2A8409E5D0
:105680007D594A856FA07FB8A685EFF0BFE74E85AC
:10569000EFE07F8A19ED7159E30594FE2285EFF062
:1056A0009FC4C5B7B1552685EFF01FBD71F926849B
:1056B000F9BFCA85630509008327090099E39305AB
:1056C0004500834709010347A9008346B9002A889A
:1056D0004E862285EFE09FB42A897DBFEFA25FB19D
:1056E00013064500EFF0BFF76FA0DFB2EFA25FB087
:1056F000AA840145EFF01FA02A8411CD714681458F
:10570000EFA01FB2930700F83CB4938781909843B1
:1057100004A880C358C422856FA0DFAF83A6C190C0
:1057200003A6419283A5419103D541839387418389
:10573000130715001315070113180701418163535F
:1057400008000565368719E7328719EB2E8719EFB0
:105750008AA382800358C701E30CA8FC5847E5B729
:105760000358C701E306A8FC5847C5B70358C7014B
:10577000E300A8FC5847E1BF1C4963960710EFA25D
:105780009FA54111AA84328411E62EC6EFF01FF9BD
:10579000B2452A8403A7419131E703A7C19025EBC5
:1057A00083A90191138901914E8759E783A74192FB
:1057B000CDEB85C198319C2122075D8FBC21C207AA
:1057C0005D8FBC31E207D98F89C711462685EF303E
:1057D0001033C2AC23A634012320990001454101B6
:1057E0006FA0BFA25E2F63928702104359CED1CD26
:1057F00094319C21A206DD8EBC21C207DD8EBC3116
:10580000E207D58FD9C36302F608584771B75E2FF8
:1058100063928702104335CAADC994319C21A20618
:10582000DD8EBC21C207DD8EBC31E207D58FB1CF42
:10583000630DF6045847A5B75E2F639287021043A5
:1058400029C6A1C594319C21A206DD8EBC21C207C8
:10585000DD8EBC31E207D58F8DCB6308F602584749
:10586000A9B7DA2F631F870094319821A206D98E39
:10587000B8214207D98EB8316207558F94436386A9
:10588000E600DC4735B74D558280555589BFAA875C
:105890000358C5021459D23B0C5583D8070433056D
:1058A000D84005822E95328763F3C80046874207A9
:1058B00041833307E5406345070023970703828050
:1058C0003387D5406356E000239707020145828065
:1058D0008D8EF6B7E5BFEFA2BF915E352A84BE95E7
:1058E000C2055E39C1814EB563F3B7005EB522854E
:1058F000EFF0FFF95E388983634BF500834764025C
:10590000228593E727002303F402EF20203E6FA0B7
:105910007F90EFA2FF8D4111014409CDAA85484136
:10592000014411C52EC6EFF01F9CB2452A841145D3
:10593000EFF04FFE228541016FA0DF8DEFA25F8B5C
:10594000014401E522856FA0FF8C0441EFF07FFC4C
:105950002A941374F40F2685EDB7EFA27F894111C5
:105960002AC61145EFF00FF92A8401C9B245514604
:10597000EF30F0184840EFF09FB6228541016FA04C
:105980007F890CCD82802328B50882802326B50824
:105990008280232EB5088280232CB508A30EC50271
:1059A00082801C4905476374F70429476381E70433
:1059B000EFA21F842A840325850809C5EFF0BF9252
:1059C0002324040803254408FD577EBCEFF01FF78D
:1059D000685C23220408EFF07FF603250408EFF04B
:1059E000FFF5232E0406232004086FA0BF828280C7
:1059F000EFA20FFDB77400209387C43F13878191F6
:105A000003CC87011C43A56A850703ADC1901CC365
:105A100013096006014A9384C43F138481919389DA
:105A2000C1908D4C938ACA5F138B0185631A0D0058
:105A300003A4419293844192631904246FA00FFC44
:105A40007D191379F90FE30B09FE03462D05832613
:105A50000D01854D6302CC02834D0D0B63840D1047
:105A60000327CD0AB306BB0183C6F6FF050723262D
:105A7000ED0A637CD70C814D03270D019946631D08
:105A8000D70003268D031440918E904C6376D60088
:105A900093871D0093FDF70F83568D00814BA18ADC
:105AA00095CE91466305D7009D466319D70283289A
:105AB0004D0A83268D0A03250D0ACC4CB386D802E5
:105AC000104003278D03198EAA96B3D6B60263FC45
:105AD000C61093871D0093FDF70F854B03254D08D6
